{
  "_format": "hh-sol-artifact-1",
  "contractName": "HSEToken",
  "sourceName": "contracts/HSEToken.sol",
  "abi": [
    {
      "inputs": [],
      "stateMutability": "nonpayable",
      "type": "constructor"
    },
    {
      "anonymous": false,
      "inputs": [
        {
          "indexed": true,
          "internalType": "address",
          "name": "owner",
          "type": "address"
        },
        {
          "indexed": true,
          "internalType": "address",
          "name": "spender",
          "type": "address"
        },
        {
          "indexed": false,
          "internalType": "uint256",
          "name": "value",
          "type": "uint256"
        }
      ],
      "name": "Approval",
      "type": "event"
    },
    {
      "anonymous": false,
      "inputs": [
        {
          "indexed": false,
          "internalType": "uint256",
          "name": "id",
          "type": "uint256"
        }
      ],
      "name": "DeleteStudent",
      "type": "event"
    },
    {
      "anonymous": false,
      "inputs": [
        {
          "indexed": true,
          "internalType": "address",
          "name": "previousOwner",
          "type": "address"
        },
        {
          "indexed": true,
          "internalType": "address",
          "name": "newOwner",
          "type": "address"
        }
      ],
      "name": "OwnershipTransferred",
      "type": "event"
    },
    {
      "anonymous": false,
      "inputs": [
        {
          "indexed": false,
          "internalType": "uint256",
          "name": "id",
          "type": "uint256"
        },
        {
          "indexed": true,
          "internalType": "string",
          "name": "name",
          "type": "string"
        },
        {
          "indexed": false,
          "internalType": "uint8",
          "name": "mark",
          "type": "uint8"
        },
        {
          "indexed": false,
          "internalType": "bool",
          "name": "isLanguageJS",
          "type": "bool"
        }
      ],
      "name": "SetStudent",
      "type": "event"
    },
    {
      "anonymous": false,
      "inputs": [
        {
          "indexed": true,
          "internalType": "address",
          "name": "from",
          "type": "address"
        },
        {
          "indexed": true,
          "internalType": "address",
          "name": "to",
          "type": "address"
        },
        {
          "indexed": false,
          "internalType": "uint256",
          "name": "value",
          "type": "uint256"
        }
      ],
      "name": "Transfer",
      "type": "event"
    },
    {
      "inputs": [
        {
          "internalType": "address",
          "name": "owner",
          "type": "address"
        },
        {
          "internalType": "address",
          "name": "spender",
          "type": "address"
        }
      ],
      "name": "allowance",
      "outputs": [
        {
          "internalType": "uint256",
          "name": "",
          "type": "uint256"
        }
      ],
      "stateMutability": "view",
      "type": "function"
    },
    {
      "inputs": [
        {
          "internalType": "address",
          "name": "spender",
          "type": "address"
        },
        {
          "internalType": "uint256",
          "name": "amount",
          "type": "uint256"
        }
      ],
      "name": "approve",
      "outputs": [
        {
          "internalType": "bool",
          "name": "",
          "type": "bool"
        }
      ],
      "stateMutability": "nonpayable",
      "type": "function"
    },
    {
      "inputs": [
        {
          "internalType": "address",
          "name": "account",
          "type": "address"
        }
      ],
      "name": "balanceOf",
      "outputs": [
        {
          "internalType": "uint256",
          "name": "",
          "type": "uint256"
        }
      ],
      "stateMutability": "view",
      "type": "function"
    },
    {
      "inputs": [],
      "name": "decimals",
      "outputs": [
        {
          "internalType": "uint8",
          "name": "",
          "type": "uint8"
        }
      ],
      "stateMutability": "view",
      "type": "function"
    },
    {
      "inputs": [
        {
          "internalType": "address",
          "name": "spender",
          "type": "address"
        },
        {
          "internalType": "uint256",
          "name": "subtractedValue",
          "type": "uint256"
        }
      ],
      "name": "decreaseAllowance",
      "outputs": [
        {
          "internalType": "bool",
          "name": "",
          "type": "bool"
        }
      ],
      "stateMutability": "nonpayable",
      "type": "function"
    },
    {
      "inputs": [
        {
          "internalType": "uint256",
          "name": "_id",
          "type": "uint256"
        }
      ],
      "name": "deleteStudent",
      "outputs": [],
      "stateMutability": "nonpayable",
      "type": "function"
    },
    {
      "inputs": [
        {
          "internalType": "uint256",
          "name": "_id",
          "type": "uint256"
        }
      ],
      "name": "getStudent",
      "outputs": [
        {
          "components": [
            {
              "internalType": "string",
              "name": "name",
              "type": "string"
            },
            {
              "internalType": "uint8",
              "name": "mark",
              "type": "uint8"
            },
            {
              "internalType": "bool",
              "name": "isLanguageJS",
              "type": "bool"
            }
          ],
          "internalType": "struct HSEToken.HSEStudent",
          "name": "",
          "type": "tuple"
        }
      ],
      "stateMutability": "view",
      "type": "function"
    },
    {
      "inputs": [
        {
          "internalType": "address",
          "name": "spender",
          "type": "address"
        },
        {
          "internalType": "uint256",
          "name": "addedValue",
          "type": "uint256"
        }
      ],
      "name": "increaseAllowance",
      "outputs": [
        {
          "internalType": "bool",
          "name": "",
          "type": "bool"
        }
      ],
      "stateMutability": "nonpayable",
      "type": "function"
    },
    {
      "inputs": [
        {
          "internalType": "address",
          "name": "account",
          "type": "address"
        },
        {
          "internalType": "uint256",
          "name": "amount",
          "type": "uint256"
        }
      ],
      "name": "mint",
      "outputs": [],
      "stateMutability": "nonpayable",
      "type": "function"
    },
    {
      "inputs": [],
      "name": "name",
      "outputs": [
        {
          "internalType": "string",
          "name": "",
          "type": "string"
        }
      ],
      "stateMutability": "view",
      "type": "function"
    },
    {
      "inputs": [],
      "name": "owner",
      "outputs": [
        {
          "internalType": "address",
          "name": "",
          "type": "address"
        }
      ],
      "stateMutability": "view",
      "type": "function"
    },
    {
      "inputs": [],
      "name": "renounceOwnership",
      "outputs": [],
      "stateMutability": "nonpayable",
      "type": "function"
    },
    {
      "inputs": [
        {
          "internalType": "uint256",
          "name": "_id",
          "type": "uint256"
        },
        {
          "internalType": "string",
          "name": "_name",
          "type": "string"
        },
        {
          "internalType": "uint8",
          "name": "_mark",
          "type": "uint8"
        },
        {
          "internalType": "bool",
          "name": "_isLanguageJS",
          "type": "bool"
        }
      ],
      "name": "setStudent",
      "outputs": [],
      "stateMutability": "nonpayable",
      "type": "function"
    },
    {
      "inputs": [],
      "name": "symbol",
      "outputs": [
        {
          "internalType": "string",
          "name": "",
          "type": "string"
        }
      ],
      "stateMutability": "view",
      "type": "function"
    },
    {
      "inputs": [],
      "name": "totalSupply",
      "outputs": [
        {
          "internalType": "uint256",
          "name": "",
          "type": "uint256"
        }
      ],
      "stateMutability": "view",
      "type": "function"
    },
    {
      "inputs": [
        {
          "internalType": "address",
          "name": "to",
          "type": "address"
        },
        {
          "internalType": "uint256",
          "name": "amount",
          "type": "uint256"
        }
      ],
      "name": "transfer",
      "outputs": [
        {
          "internalType": "bool",
          "name": "",
          "type": "bool"
        }
      ],
      "stateMutability": "nonpayable",
      "type": "function"
    },
    {
      "inputs": [
        {
          "internalType": "address",
          "name": "from",
          "type": "address"
        },
        {
          "internalType": "address",
          "name": "to",
          "type": "address"
        },
        {
          "internalType": "uint256",
          "name": "amount",
          "type": "uint256"
        }
      ],
      "name": "transferFrom",
      "outputs": [
        {
          "internalType": "bool",
          "name": "",
          "type": "bool"
        }
      ],
      "stateMutability": "nonpayable",
      "type": "function"
    },
    {
      "inputs": [
        {
          "internalType": "address",
          "name": "newOwner",
          "type": "address"
        }
      ],
      "name": "transferOwnership",
      "outputs": [],
      "stateMutability": "nonpayable",
      "type": "function"
    }
  ],
  "bytecode": "0x60806040523480156200001157600080fd5b506040518060400160405280600981526020017f48534520546f6b656e00000000000000000000000000000000000000000000008152506040518060400160405280600381526020017f48534500000000000000000000000000000000000000000000000000000000008152506200009e620000926200012360201b60201c565b6200012b60201b60201c565b8160049080519060200190620000b692919062000371565b508060059080519060200190620000cf92919062000371565b5050506000620000e4620001ef60201b60201c565b600a620000f29190620005bb565b9050600081620186a06200010791906200060c565b90506200011b3382620001f860201b60201c565b5050620007e0565b600033905090565b60008060009054906101000a900473ffffffffffffffffffffffffffffffffffffffff169050816000806101000a81548173ffffffffffffffffffffffffffffffffffffffff021916908373ffffffffffffffffffffffffffffffffffffffff1602179055508173ffffffffffffffffffffffffffffffffffffffff168173ffffffffffffffffffffffffffffffffffffffff167f8be0079c531659141344cd1fd0a4f28419497f9722a3daafe3b4186f6b6457e060405160405180910390a35050565b60006012905090565b600073ffffffffffffffffffffffffffffffffffffffff168273ffffffffffffffffffffffffffffffffffffffff1614156200026b576040517f08c379a00000000000000000000000000000000000000000000000000000000081526004016200026290620006ce565b60405180910390fd5b6200027f600083836200036760201b60201c565b8060036000828254620002939190620006f0565b9250508190555080600160008473ffffffffffffffffffffffffffffffffffffffff1673ffffffffffffffffffffffffffffffffffffffff168152602001908152602001600020600082825401925050819055508173ffffffffffffffffffffffffffffffffffffffff16600073ffffffffffffffffffffffffffffffffffffffff167fddf252ad1be2c89b69c2b068fc378daa952ba7f163c4a11628f55a4df523b3ef836040516200034791906200075e565b60405180910390a362000363600083836200036c60201b60201c565b5050565b505050565b505050565b8280546200037f90620007aa565b90600052602060002090601f016020900481019282620003a35760008555620003ef565b82601f10620003be57805160ff1916838001178555620003ef565b82800160010185558215620003ef579182015b82811115620003ee578251825591602001919060010190620003d1565b5b509050620003fe919062000402565b5090565b5b808211156200041d57600081600090555060010162000403565b5090565b7f4e487b7100000000000000000000000000000000000000000000000000000000600052601160045260246000fd5b60008160011c9050919050565b6000808291508390505b6001851115620004af5780860481111562000487576200048662000421565b5b6001851615620004975780820291505b8081029050620004a78562000450565b945062000467565b94509492505050565b600082620004ca57600190506200059d565b81620004da57600090506200059d565b8160018114620004f35760028114620004fe5762000534565b60019150506200059d565b60ff84111562000513576200051262000421565b5b8360020a9150848211156200052d576200052c62000421565b5b506200059d565b5060208310610133831016604e8410600b84101617156200056e5782820a90508381111562000568576200056762000421565b5b6200059d565b6200057d84848460016200045d565b9250905081840481111562000597576200059662000421565b5b81810290505b9392505050565b6000819050919050565b600060ff82169050919050565b6000620005c882620005a4565b9150620005d583620005ae565b9250620006047fffffffffffffffffffffffffffffffffffffffffffffffffffffffffffffffff8484620004b8565b905092915050565b60006200061982620005a4565b91506200062683620005a4565b9250817fffffffffffffffffffffffffffffffffffffffffffffffffffffffffffffffff048311821515161562000662576200066162000421565b5b828202905092915050565b600082825260208201905092915050565b7f45524332303a206d696e7420746f20746865207a65726f206164647265737300600082015250565b6000620006b6601f836200066d565b9150620006c3826200067e565b602082019050919050565b60006020820190508181036000830152620006e981620006a7565b9050919050565b6000620006fd82620005a4565b91506200070a83620005a4565b9250827fffffffffffffffffffffffffffffffffffffffffffffffffffffffffffffffff0382111562000742576200074162000421565b5b828201905092915050565b6200075881620005a4565b82525050565b60006020820190506200077560008301846200074d565b92915050565b7f4e487b7100000000000000000000000000000000000000000000000000000000600052602260045260246000fd5b60006002820490506001821680620007c357607f821691505b60208210811415620007da57620007d96200077b565b5b50919050565b611fc080620007f06000396000f3fe608060405234801561001057600080fd5b50600436106101165760003560e01c8063715018a6116100a2578063a457c2d711610071578063a457c2d7146102e3578063a9059cbb14610313578063b645307d14610343578063dd62ed3e1461035f578063f2fde38b1461038f57610116565b8063715018a6146102815780638da5cb5b1461028b57806395d89b41146102a9578063a057402e146102c757610116565b8063313ce567116100e9578063313ce567146101b757806339509351146101d557806340c10f1914610205578063642f91631461022157806370a082311461025157610116565b806306fdde031461011b578063095ea7b31461013957806318160ddd1461016957806323b872dd14610187575b600080fd5b6101236103ab565b6040516101309190611336565b60405180910390f35b610153600480360381019061014e9190611400565b61043d565b604051610160919061145b565b60405180910390f35b610171610460565b60405161017e9190611485565b60405180910390f35b6101a1600480360381019061019c91906114a0565b61046a565b6040516101ae919061145b565b60405180910390f35b6101bf610499565b6040516101cc919061150f565b60405180910390f35b6101ef60048036038101906101ea9190611400565b6104a2565b6040516101fc919061145b565b60405180910390f35b61021f600480360381019061021a9190611400565b6104d9565b005b61023b6004803603810190610236919061152a565b6104ef565b604051610248919061160f565b60405180910390f35b61026b60048036038101906102669190611631565b6105e6565b6040516102789190611485565b60405180910390f35b61028961062f565b005b610293610643565b6040516102a0919061166d565b60405180910390f35b6102b161066c565b6040516102be9190611336565b60405180910390f35b6102e160048036038101906102dc9190611815565b6106fe565b005b6102fd60048036038101906102f89190611400565b6107e9565b60405161030a919061145b565b60405180910390f35b61032d60048036038101906103289190611400565b610860565b60405161033a919061145b565b60405180910390f35b61035d6004803603810190610358919061152a565b610883565b005b61037960048036038101906103749190611898565b61090b565b6040516103869190611485565b60405180910390f35b6103a960048036038101906103a49190611631565b610992565b005b6060600480546103ba90611907565b80601f01602080910402602001604051908101604052809291908181526020018280546103e690611907565b80156104335780601f1061040857610100808354040283529160200191610433565b820191906000526020600020905b81548152906001019060200180831161041657829003601f168201915b5050505050905090565b600080610448610a16565b9050610455818585610a1e565b600191505092915050565b6000600354905090565b600080610475610a16565b9050610482858285610be9565b61048d858585610c75565b60019150509392505050565b60006012905090565b6000806104ad610a16565b90506104ce8185856104bf858961090b565b6104c99190611968565b610a1e565b600191505092915050565b6104e1610ef0565b6104eb8282610f6e565b5050565b6104f7611194565b6006600083815260200190815260200160002060405180606001604052908160008201805461052590611907565b80601f016020809104026020016040519081016040528092919081815260200182805461055190611907565b801561059e5780601f106105735761010080835404028352916020019161059e565b820191906000526020600020905b81548152906001019060200180831161058157829003601f168201915b505050505081526020016001820160009054906101000a900460ff1660ff1660ff1681526020016001820160019054906101000a900460ff1615151515815250509050919050565b6000600160008373ffffffffffffffffffffffffffffffffffffffff1673ffffffffffffffffffffffffffffffffffffffff168152602001908152602001600020549050919050565b610637610ef0565b61064160006110c6565b565b60008060009054906101000a900473ffffffffffffffffffffffffffffffffffffffff16905090565b60606005805461067b90611907565b80601f01602080910402602001604051908101604052809291908181526020018280546106a790611907565b80156106f45780601f106106c9576101008083540402835291602001916106f4565b820191906000526020600020905b8154815290600101906020018083116106d757829003601f168201915b5050505050905090565b8260405161070c91906119fa565b60405180910390207f36713a734c1d5f454c417494643dbcf2c0680db8559986a127831cd86465912285848460405161074793929190611a11565b60405180910390a260405180606001604052808481526020018360ff16815260200182151581525060066000868152602001908152602001600020600082015181600001908051906020019061079e9291906111ba565b5060208201518160010160006101000a81548160ff021916908360ff16021790555060408201518160010160016101000a81548160ff02191690831515021790555090505050505050565b6000806107f4610a16565b90506000610802828661090b565b905083811015610847576040517f08c379a000000000000000000000000000000000000000000000000000000000815260040161083e90611aba565b60405180910390fd5b6108548286868403610a1e565b60019250505092915050565b60008061086b610a16565b9050610878818585610c75565b600191505092915050565b7f534a93a4eed42147ca478fe34e69831009cc41645dc962505c50f4cca8e4b0bb816040516108b29190611485565b60405180910390a160066000828152602001908152602001600020600080820160006108de9190611240565b6001820160006101000a81549060ff02191690556001820160016101000a81549060ff0219169055505050565b6000600260008473ffffffffffffffffffffffffffffffffffffffff1673ffffffffffffffffffffffffffffffffffffffff16815260200190815260200160002060008373ffffffffffffffffffffffffffffffffffffffff1673ffffffffffffffffffffffffffffffffffffffff16815260200190815260200160002054905092915050565b61099a610ef0565b600073ffffffffffffffffffffffffffffffffffffffff168173ffffffffffffffffffffffffffffffffffffffff161415610a0a576040517f08c379a0000000000000000000000000000000000000000000000000000000008152600401610a0190611b4c565b60405180910390fd5b610a13816110c6565b50565b600033905090565b600073ffffffffffffffffffffffffffffffffffffffff168373ffffffffffffffffffffffffffffffffffffffff161415610a8e576040517f08c379a0000000000000000000000000000000000000000000000000000000008152600401610a8590611bde565b60405180910390fd5b600073ffffffffffffffffffffffffffffffffffffffff168273ffffffffffffffffffffffffffffffffffffffff161415610afe576040517f08c379a0000000000000000000000000000000000000000000000000000000008152600401610af590611c70565b60405180910390fd5b80600260008573ffffffffffffffffffffffffffffffffffffffff1673ffffffffffffffffffffffffffffffffffffffff16815260200190815260200160002060008473ffffffffffffffffffffffffffffffffffffffff1673ffffffffffffffffffffffffffffffffffffffff168152602001908152602001600020819055508173ffffffffffffffffffffffffffffffffffffffff168373ffffffffffffffffffffffffffffffffffffffff167f8c5be1e5ebec7d5bd14f71427d1e84f3dd0314c0f7b2291e5b200ac8c7c3b92583604051610bdc9190611485565b60405180910390a3505050565b6000610bf5848461090b565b90507fffffffffffffffffffffffffffffffffffffffffffffffffffffffffffffffff8114610c6f5781811015610c61576040517f08c379a0000000000000000000000000000000000000000000000000000000008152600401610c5890611cdc565b60405180910390fd5b610c6e8484848403610a1e565b5b50505050565b600073ffffffffffffffffffffffffffffffffffffffff168373ffffffffffffffffffffffffffffffffffffffff161415610ce5576040517f08c379a0000000000000000000000000000000000000000000000000000000008152600401610cdc90611d6e565b60405180910390fd5b600073ffffffffffffffffffffffffffffffffffffffff168273ffffffffffffffffffffffffffffffffffffffff161415610d55576040517f08c379a0000000000000000000000000000000000000000000000000000000008152600401610d4c90611e00565b60405180910390fd5b610d6083838361118a565b6000600160008573ffffffffffffffffffffffffffffffffffffffff1673ffffffffffffffffffffffffffffffffffffffff16815260200190815260200160002054905081811015610de7576040517f08c379a0000000000000000000000000000000000000000000000000000000008152600401610dde90611e92565b60405180910390fd5b818103600160008673ffffffffffffffffffffffffffffffffffffffff1673ffffffffffffffffffffffffffffffffffffffff1681526020019081526020016000208190555081600160008573ffffffffffffffffffffffffffffffffffffffff1673ffffffffffffffffffffffffffffffffffffffff168152602001908152602001600020600082825401925050819055508273ffffffffffffffffffffffffffffffffffffffff168473ffffffffffffffffffffffffffffffffffffffff167fddf252ad1be2c89b69c2b068fc378daa952ba7f163c4a11628f55a4df523b3ef84604051610ed79190611485565b60405180910390a3610eea84848461118f565b50505050565b610ef8610a16565b73ffffffffffffffffffffffffffffffffffffffff16610f16610643565b73ffffffffffffffffffffffffffffffffffffffff1614610f6c576040517f08c379a0000000000000000000000000000000000000000000000000000000008152600401610f6390611efe565b60405180910390fd5b565b600073ffffffffffffffffffffffffffffffffffffffff168273ffffffffffffffffffffffffffffffffffffffff161415610fde576040517f08c379a0000000000000000000000000000000000000000000000000000000008152600401610fd590611f6a565b60405180910390fd5b610fea6000838361118a565b8060036000828254610ffc9190611968565b9250508190555080600160008473ffffffffffffffffffffffffffffffffffffffff1673ffffffffffffffffffffffffffffffffffffffff168152602001908152602001600020600082825401925050819055508173ffffffffffffffffffffffffffffffffffffffff16600073ffffffffffffffffffffffffffffffffffffffff167fddf252ad1be2c89b69c2b068fc378daa952ba7f163c4a11628f55a4df523b3ef836040516110ae9190611485565b60405180910390a36110c26000838361118f565b5050565b60008060009054906101000a900473ffffffffffffffffffffffffffffffffffffffff169050816000806101000a81548173ffffffffffffffffffffffffffffffffffffffff021916908373ffffffffffffffffffffffffffffffffffffffff1602179055508173ffffffffffffffffffffffffffffffffffffffff168173ffffffffffffffffffffffffffffffffffffffff167f8be0079c531659141344cd1fd0a4f28419497f9722a3daafe3b4186f6b6457e060405160405180910390a35050565b505050565b505050565b604051806060016040528060608152602001600060ff1681526020016000151581525090565b8280546111c690611907565b90600052602060002090601f0160209004810192826111e8576000855561122f565b82601f1061120157805160ff191683800117855561122f565b8280016001018555821561122f579182015b8281111561122e578251825591602001919060010190611213565b5b50905061123c9190611280565b5090565b50805461124c90611907565b6000825580601f1061125e575061127d565b601f01602090049060005260206000209081019061127c9190611280565b5b50565b5b80821115611299576000816000905550600101611281565b5090565b600081519050919050565b600082825260208201905092915050565b60005b838110156112d75780820151818401526020810190506112bc565b838111156112e6576000848401525b50505050565b6000601f19601f8301169050919050565b60006113088261129d565b61131281856112a8565b93506113228185602086016112b9565b61132b816112ec565b840191505092915050565b6000602082019050818103600083015261135081846112fd565b905092915050565b6000604051905090565b600080fd5b600080fd5b600073ffffffffffffffffffffffffffffffffffffffff82169050919050565b60006113978261136c565b9050919050565b6113a78161138c565b81146113b257600080fd5b50565b6000813590506113c48161139e565b92915050565b6000819050919050565b6113dd816113ca565b81146113e857600080fd5b50565b6000813590506113fa816113d4565b92915050565b6000806040838503121561141757611416611362565b5b6000611425858286016113b5565b9250506020611436858286016113eb565b9150509250929050565b60008115159050919050565b61145581611440565b82525050565b6000602082019050611470600083018461144c565b92915050565b61147f816113ca565b82525050565b600060208201905061149a6000830184611476565b92915050565b6000806000606084860312156114b9576114b8611362565b5b60006114c7868287016113b5565b93505060206114d8868287016113b5565b92505060406114e9868287016113eb565b9150509250925092565b600060ff82169050919050565b611509816114f3565b82525050565b60006020820190506115246000830184611500565b92915050565b6000602082840312156115405761153f611362565b5b600061154e848285016113eb565b91505092915050565b600082825260208201905092915050565b60006115738261129d565b61157d8185611557565b935061158d8185602086016112b9565b611596816112ec565b840191505092915050565b6115aa816114f3565b82525050565b6115b981611440565b82525050565b600060608301600083015184820360008601526115dc8282611568565b91505060208301516115f160208601826115a1565b50604083015161160460408601826115b0565b508091505092915050565b6000602082019050818103600083015261162981846115bf565b905092915050565b60006020828403121561164757611646611362565b5b6000611655848285016113b5565b91505092915050565b6116678161138c565b82525050565b6000602082019050611682600083018461165e565b92915050565b600080fd5b600080fd5b7f4e487b7100000000000000000000000000000000000000000000000000000000600052604160045260246000fd5b6116ca826112ec565b810181811067ffffffffffffffff821117156116e9576116e8611692565b5b80604052505050565b60006116fc611358565b905061170882826116c1565b919050565b600067ffffffffffffffff82111561172857611727611692565b5b611731826112ec565b9050602081019050919050565b82818337600083830152505050565b600061176061175b8461170d565b6116f2565b90508281526020810184848401111561177c5761177b61168d565b5b61178784828561173e565b509392505050565b600082601f8301126117a4576117a3611688565b5b81356117b484826020860161174d565b91505092915050565b6117c6816114f3565b81146117d157600080fd5b50565b6000813590506117e3816117bd565b92915050565b6117f281611440565b81146117fd57600080fd5b50565b60008135905061180f816117e9565b92915050565b6000806000806080858703121561182f5761182e611362565b5b600061183d878288016113eb565b945050602085013567ffffffffffffffff81111561185e5761185d611367565b5b61186a8782880161178f565b935050604061187b878288016117d4565b925050606061188c87828801611800565b91505092959194509250565b600080604083850312156118af576118ae611362565b5b60006118bd858286016113b5565b92505060206118ce858286016113b5565b9150509250929050565b7f4e487b7100000000000000000000000000000000000000000000000000000000600052602260045260246000fd5b6000600282049050600182168061191f57607f821691505b60208210811415611933576119326118d8565b5b50919050565b7f4e487b7100000000000000000000000000000000000000000000000000000000600052601160045260246000fd5b6000611973826113ca565b915061197e836113ca565b9250827fffffffffffffffffffffffffffffffffffffffffffffffffffffffffffffffff038211156119b3576119b2611939565b5b828201905092915050565b600081905092915050565b60006119d48261129d565b6119de81856119be565b93506119ee8185602086016112b9565b80840191505092915050565b6000611a0682846119c9565b915081905092915050565b6000606082019050611a266000830186611476565b611a336020830185611500565b611a40604083018461144c565b949350505050565b7f45524332303a2064656372656173656420616c6c6f77616e63652062656c6f7760008201527f207a65726f000000000000000000000000000000000000000000000000000000602082015250565b6000611aa46025836112a8565b9150611aaf82611a48565b604082019050919050565b60006020820190508181036000830152611ad381611a97565b9050919050565b7f4f776e61626c653a206e6577206f776e657220697320746865207a65726f206160008201527f6464726573730000000000000000000000000000000000000000000000000000602082015250565b6000611b366026836112a8565b9150611b4182611ada565b604082019050919050565b60006020820190508181036000830152611b6581611b29565b9050919050565b7f45524332303a20617070726f76652066726f6d20746865207a65726f2061646460008201527f7265737300000000000000000000000000000000000000000000000000000000602082015250565b6000611bc86024836112a8565b9150611bd382611b6c565b604082019050919050565b60006020820190508181036000830152611bf781611bbb565b9050919050565b7f45524332303a20617070726f766520746f20746865207a65726f20616464726560008201527f7373000000000000000000000000000000000000000000000000000000000000602082015250565b6000611c5a6022836112a8565b9150611c6582611bfe565b604082019050919050565b60006020820190508181036000830152611c8981611c4d565b9050919050565b7f45524332303a20696e73756666696369656e7420616c6c6f77616e6365000000600082015250565b6000611cc6601d836112a8565b9150611cd182611c90565b602082019050919050565b60006020820190508181036000830152611cf581611cb9565b9050919050565b7f45524332303a207472616e736665722066726f6d20746865207a65726f20616460008201527f6472657373000000000000000000000000000000000000000000000000000000602082015250565b6000611d586025836112a8565b9150611d6382611cfc565b604082019050919050565b60006020820190508181036000830152611d8781611d4b565b9050919050565b7f45524332303a207472616e7366657220746f20746865207a65726f206164647260008201527f6573730000000000000000000000000000000000000000000000000000000000602082015250565b6000611dea6023836112a8565b9150611df582611d8e565b604082019050919050565b60006020820190508181036000830152611e1981611ddd565b9050919050565b7f45524332303a207472616e7366657220616d6f756e742065786365656473206260008201527f616c616e63650000000000000000000000000000000000000000000000000000602082015250565b6000611e7c6026836112a8565b9150611e8782611e20565b604082019050919050565b60006020820190508181036000830152611eab81611e6f565b9050919050565b7f4f776e61626c653a2063616c6c6572206973206e6f7420746865206f776e6572600082015250565b6000611ee86020836112a8565b9150611ef382611eb2565b602082019050919050565b60006020820190508181036000830152611f1781611edb565b9050919050565b7f45524332303a206d696e7420746f20746865207a65726f206164647265737300600082015250565b6000611f54601f836112a8565b9150611f5f82611f1e565b602082019050919050565b60006020820190508181036000830152611f8381611f47565b905091905056fea2646970667358221220a9fdcc827fd2bca797b298c450a1a2818e2c4fcaccbabda15d3d77343d83bb0364736f6c63430008080033",
  "linkReferences": {},
  "deployedLinkReferences": {}
}